:100000000C9434000C943E000C943E000C943E0082
:100010000C943E000C943E000C943E000C943E0068
:100020000C943E000C943E000C943E000C943E0058
:100030000C943E000C943E000C943E000C943E0048
:100040000C943E000C943E000C943E000C943E0038
:100050000C943E000C943E000C943E000C943E0028
:100060000C943E000C943E0011241FBECFEFD8E04C
:10007000DEBFCDBF0E947B000C94E4000C94000016
:1000800095B1907F95B9813011F4289A0895823006
:1000900021F485B1836085B90895833019F485B161
:1000A0008760F9CF8430C1F785B18F60F4CF409A73
:1000B0008FEF97EA21E6815090402040E1F700C0A1
:1000C000000040980895419A8FEF97EA21E6815009
:1000D00090402040E1F700C0000041980895429A06
:1000E0008FEF9DE329E4815090402040E1F700C06C
:1000F0000000429808958FE084B997E097B91AB844
:100100008BB915B818B8C0E0489913C08FEF90E7C5
:1001100022E0815090402040E1F700C00000489963
:1001200008C0C43020F4CF5F8C2F0E944000489B51
:10013000FECF499915C08FEF90E722E081509040A3
:100140002040E1F700C0000049990AC0C23030F0F9
:10015000C2508C2F0E9440000E945700499BFECF46
:100160004A9915C08FEF90E722E0815090402040DF
:10017000E1F700C000004A990AC0C33030F0C35014
:100180008C2F0E9440000E9463004A9BFECF4B9937
:1001900018C08FEF90E722E0815090402040E1F7B7
:1001A00000C0000089B1D82FD87083FD0AC0C030CC
:1001B00029F00E946F0080E00E9440004B9BFECF20
:0C01C00001C0DC2FCD2FA0CFF894FFCFA2
:00000001FF
